:020000040000FA
:100000000C944D010C9475010C9475010C947501C0
:100010000C9475010C9475010C9475010C94750188
:100020000C9475010C9475010C9475010C94750178
:100030000C9475010C9475010C9475010C94750168
:100040000C9484050C9475010C94F4050C94CE0565
:100050000C9475010C9475010C9475010C94750148
:100060000C9475010C947501000000000000005F05
:1000700000000007000700147F147F14242A7F2A41
:10008000122313086462364955225000050300000C
:10009000001C2241000041221C0014083E081408E4
:1000A000083E0808005030000008080808080060F2
:1000B00060000020100804023E5149453E00427F86
:1000C000400042615149462141454B311814127F8D
:1000D0001027454545393C4A494930017109050316
:1000E0003649494936064949291E0036360000007E
:1000F0005636000008142241001414141414004150
:100100002214080201510906324979413E7E11113B
:10011000117E7F494949363E414141227F4141227A
:100120001C7F494949417F090909013E4149497AF2
:100130007F0808087F00417F41002040413F017F48
:10014000081422417F404040407F020C027F7F0420
:1001500008107F3E4141413E7F090909063E415159
:10016000215E7F09192946464949493101017F012C
:10017000013F4040403F1F2040201F3F4038403F4C
:100180006314081463070870080761514945430068
:100190007F41410002040810200041417F00040219
:1001A0000102044040404040000102040020545439
:1001B00054787F48444438384444442038444448C0
:1001C0007F3854545418087E0901020C5252523E92
:1001D0007F0804047800447D40002040443D007FB7
:1001E0001028440000417F40007C041804787C08FB
:1001F00004047838444444387C1414140808141453
:10020000187C7C080404084854545420043F44409B
:10021000203C4040207C1C2040201C3C4030403C86
:1002200044281028440C5050503C4464544C440022
:100230000836410000007F00000041360800100829
:100240000810080000000000000000080002010083
:100250000003040700000000000000000000000090
:10026000250028002B0000000000240027002A00A1
:10027000040404040404040402020202020203034C
:100280000303030301020408102040800102040854
:100290001020010204081020260611241FBECFEFF3
:1002A000D8E0DEBFCDBF11E0A0E0B1E0E0EFFCE1BF
:1002B00002C005900D92A434B107D9F722E0A4E45E
:1002C000B1E001C01D92A139B207E1F711E0CDE420
:1002D000D1E004C02197FE010E94700ECC34D107FA
:1002E000C9F70E94CF060C94760E0C94000090E0A3
:1002F000FC01EC57FD4F249180599D4FFC018491E6
:10030000882399F090E0880F991FFC01EA59FD4F6E
:10031000A591B491FC01E45AFD4F859194918FB75A
:10032000F894EC91E22BEC938FBF089590E0FC01E0
:10033000E85BFD4F2491FC01EC57FD4F3491FC012B
:10034000E059FD4FE491EE23C9F0222339F0233028
:1003500001F1A8F4213019F1223029F1F0E0EE0F7B
:10036000FF1FE45AFD4FA591B4918FB7F894EC911B
:10037000611126C030953E233C938FBF08952730EE
:10038000A9F02830C9F0243049F7809180008F7D92
:1003900003C0809180008F7780938000DFCF84B589
:1003A0008F7784BDDBCF84B58F7DFBCF8091B0008C
:1003B0008F778093B000D2CF8091B0008F7DF9CF3E
:1003C0003E2BDACF8E50806480937C0080917A003F
:1003D000806480937A0080917A0086FDFCCF8091C2
:1003E00078009091790008953FB7F8948091550175
:1003F00090915601A0915701B091580126B5A89B44
:1004000005C02F3F19F00196A11DB11D3FBFBA2FA6
:10041000A92F982F8827BC01CD01620F711D811D66
:10042000911D42E0660F771F881F991F4A95D1F7EB
:1004300008958F929F92AF92BF92CF92DF92EF92E8
:10044000FF924B015C010E94F4016B017C010E9450
:10045000F4016C197D098E099F09683E734081057E
:100460009105A8F321E0821A9108A108B10888EE4D
:10047000C80E83E0D81EE11CF11C81149104A10474
:10048000B10429F7FF90EF90DF90CF90BF90AF902D
:100490009F908F900895AF92BF92CF92DF92EF928C
:1004A000FF920F931F93CF93DF936C017B018B011E
:1004B000040F151FEB015E01AE18BF08C017D1076E
:1004C00059F06991D601ED91FC910190F081E02DF8
:1004D000C6010995892B79F7C501DF91CF911F914D
:1004E0000F91FF90EF90DF90CF90BF90AF90089565
:1004F000FC01538D448D252F30E0842F90E0821B2A
:10050000930B541710F0CF96089501970895FC01AE
:10051000918D828D981761F0A28DAE0FBF2FB11D06
:100520005D968C91928D9F5F9F73928F90E008955E
:100530008FEF9FEF0895FC01918D828D981731F018
:10054000828DE80FF11D858D90E008958FEF9FEF6C
:100550000895FC01918D228D892F90E0805C9F4F42
:10056000821B91098F739927089589E591E00E9474
:10057000A90221E0892B09F420E0822F089580E070
:1005800090E0892B29F00E94B50281110C940000A3
:100590000895FC01A48DA80FB92FB11DA35ABF4F18
:1005A0002C91848D90E001968F739927848FA68972
:1005B000B7892C93A089B1898C91837080648C93C6
:1005C000938D848D981306C00288F389E02D808175
:1005D0008F7D80830895EF92FF920F931F93CF93A7
:1005E000DF93EC0181E0888F9B8D8C8D98131AC06E
:1005F000E889F989808185FF15C09FB7F894EE8955
:10060000FF896083E889F9898081837080648083B1
:100610009FBF81E090E0DF91CF911F910F91FF90FC
:10062000EF900895F62E0B8D10E00F5F1F4F0F73A4
:100630001127E02E8C8D8E110CC00FB607FCFACF5F
:10064000E889F989808185FFF5CFCE010E94C90232
:10065000F1CFEB8DEC0FFD2FF11DE35AFF4FF08230
:100660009FB7F8940B8FEA89FB8980818062CFCF96
:10067000CF93DF93EC01888D8823B9F0AA89BB89D9
:10068000E889F9898C9185FD03C0808186FD0DC0C4
:100690000FB607FCF7CF8C9185FFF2CF808185FFE5
:1006A000EDCFCE010E94C902E9CFDF91CF9108952D
:1006B000089590E080E00895EF92FF920F931F93CA
:1006C000CF93DF93EC01042F8E810E94960160E0AE
:1006D00088850E949601FC80ED8018E0602F661FDF
:1006E0006627661F8E2D0E949601000F61E08F2DF8
:1006F0000E94960160E08F2D0E949601115071F7C3
:1007000061E08885DF91CF911F910F91FF90EF906D
:100710000C949601CF93DF93C2E4D2E01C8690E064
:100720006B8529E3629F612D1124669570E06F5FF0
:100730007F4F0E94410E8D8740E860E0CE010E940D
:100740005C034D85406460E0CE01DF91CF910C9455
:100750005C03FB0101900020E9F73197AF01461BD4
:10076000570BDC01ED91FC910280F381E02D09949F
:100770008F929F92AF92BF92EF92FF920F931F932F
:10078000CF93DF93CDB7DEB7A1970FB6F894DEBF56
:100790000FBECDBF7C01FA01CB0119A2223008F4B3
:1007A0002AE08E010F5D1F4F822E912CB12CA12CBF
:1007B000BF01A50194010E94CD0BF901CA016A3065
:1007C0000CF5605DD8016E938D01232B242B252B16
:1007D00079F790E080E0109721F0BD01C7010E94F9
:1007E000A903A1960FB6F894DEBF0FBECDBFDF916F
:1007F000CF911F910F91FF90EF90BF90AF909F907E
:100800008F900895695CDECF2F923F924F925F9256
:100810006F927F928F929F92AF92BF92CF92DF9210
:10082000EF92FF921F93CF93DF93EC016A017B015C
:10083000722EAB019601CB01B6010E943C0E6EE117
:1008400071E0811126C046015701E894B7F82FEFF7
:100850003FEF4FE75FE7C501B4010E943C0E8111F5
:100860000CC02FEF3FEF4FE75FE7C501B4010E94D7
:100870006B0C62E271E0181664F02FEF3FEF4FE768
:100880005FE4C701B6010E94CA0D1816B4F466E20F
:1008900071E0CE01DF91CF911F91FF90EF90DF903B
:1008A000CF90BF90AF909F908F907F906F905F9010
:1008B0004F903F902F900C94A9032FEF3FEF4FE7FD
:1008C0005FECC701B6010E946B0C87FDE0CF20E012
:1008D00030E0A901C701B6010E946B0C312C212C1C
:1008E00087FF0DC0E881F9810190F081E02D6DE274
:1008F000CE0109951C01F7FAF094F7F8F09410E096
:1009000060E070E080E09FE3711641F020E030E0AD
:1009100040E251E40E94700C1F5FF6CFA7019601E0
:100920000E94FF0B2B013C010E94E90C4B015C0172
:100930002AE0BC01A401CE010E94B8037C01E20CB4
:10094000F31C1123E1F1C501B4010E94180D9B01B4
:10095000AC01C301B2010E94FE0B4B015C01E881B6
:10096000F9810190F081E02D6EE2CE010995E80E4B
:10097000F91E115020F120E030E040E251E4C501C1
:10098000B4010E94CF0D2B013C010E94E90C4B01E8
:10099000B12CA12C2AE0B501A401CE010E94B8031C
:1009A000E80EF91EC501B4010E94180D9B01AC01AF
:1009B000C301B2010E94FE0B4B015C01DACFC701FB
:1009C000DF91CF911F91FF90EF90DF90CF90BF907C
:1009D000AF909F908F907F906F905F904F903F90DF
:1009E0002F900895CF93DF93AB01BC0122E089E5FE
:1009F00091E00E940404EC016AE271E089E591E073
:100A00000E94A9038C0F9D1FDF91CF910895CF9273
:100A1000DF92EF92FF920F931F93CF93DF9300D05B
:100A200000D01F92CDB7DEB767FD6BC07C01862F6B
:100A300090E0603208F455C0809725E0289FB0010F
:100A4000299F700D112468597F4F45E050E0CE0179
:100A500001960E94A50B8E010F5F1F4F680185E074
:100A6000C80ED11CF80141918F01F70186858111D3
:100A7000409561E0C7010E945C030C151D0591F7CC
:100A8000F7014685419561E0C7010E945C03F701CB
:100A9000848590E00696628570E00E94410E84870E
:100AA000892B79F4858590E00196638529E3629F1F
:100AB000612D1124669570E06F5F7F4F0E94410E9B
:100AC000858781E090E00F900F900F900F900F902E
:100AD000DF91CF911F910F91FF90EF90DF90CF901A
:100AE0000895880F991FF701E80FF91F07851089EE
:100AF0000115110509F0B2CF45E050E068E670E05D
:100B0000A6CF90E080E0DFCF1F920F920FB60F923A
:100B100011242F933F938F939F93AF93BF93809113
:100B2000F6019091F701A091F801B091F90130918F
:100B3000540123E0230F2D3758F50196A11DB11D57
:100B4000209354018093F6019093F701A093F8014C
:100B5000B093F9018091550190915601A0915701F0
:100B6000B09158010196A11DB11D8093550190933C
:100B70005601A0935701B0935801BF91AF919F9137
:100B80008F913F912F910F900FBE0F901F9018954E
:100B900026E8230F0296A11DB11DD2CF1F920F92FE
:100BA0000FB60F9211242F933F934F935F936F9340
:100BB0007F938F939F93AF93BF93EF93FF9389E5B9
:100BC00091E00E94C902FF91EF91BF91AF919F9177
:100BD0008F917F916F915F914F913F912F910F90E6
:100BE0000FBE0F901F9018951F920F920FB60F9285
:100BF00011242F938F939F93EF93FF93E0916901BB
:100C0000F0916A018081E0916F01F091700182FDA5
:100C10001BC09081809172018F5F8F73209173014F
:100C2000821741F0E0917201F0E0E75AFE4F958F94
:100C300080937201FF91EF919F918F912F910F906F
:100C40000FBE0F901F9018958081F4CFE9E5F1E079
:100C50001382128288EE93E0A0E0B0E08483958353
:100C6000A683B78384E091E09183808385EC90E054
:100C70009587848784EC90E09787868780EC90E066
:100C8000918B808B81EC90E0938B828B82EC90E057
:100C9000958B848B86EC90E0978B868B118E128ED1
:100CA000138E148EE2E4F2E01382128286E191E068
:100CB0009183808383E0848384E0858385E08683D9
:100CC00086E0878387E080871686E6E0F2E08EEF95
:100CD00091E0978F868F82E092E0958F848F8AEFE4
:100CE00091E091A380A312AE12AA13AA14AA15AA86
:100CF00080E090E0AFE7B3E486AB97ABA0AFB1AFD5
:100D000084E690E0A0E0B0E086A797A7A0ABB1ABE7
:100D1000118E108E81E090E0938F828F83AF80E000
:100D200090E0A0E2B1E480839183A283B38340E0AA
:100D300050E060E070E4448355836683778340E04D
:100D400050E060E87FE3408751876287738784873C
:100D50009587A687B7874DEC5CEC6CE47EE3408B0F
:100D6000518B628B738B848B958BA68BB78B2FB734
:100D7000F8948091F6019091F701A091F801B0915B
:100D8000F9012FBF46A557A560A971A9841B950B32
:100D9000A60BB70B82A393A3A4A3B5A30895CF93E7
:100DA000DF93CDB7DEB762970FB6F894DEBF0FBE04
:100DB000CDBF789484B5826084BD84B5816084BDE4
:100DC00085B5826085BD85B5816085BD80916E00E9
:100DD000816080936E00109281008091810082601A
:100DE0008093810080918100816080938100809157
:100DF00080008160809380008091B1008460809346
:100E0000B1008091B00081608093B00080917A0041
:100E1000846080937A0080917A00826080937A0067
:100E200080917A00816080937A0080917A00806856
:100E300080937A001092C100E0916901F0916A01FB
:100E400082E08083E0916501F09166011082E0917B
:100E50006701F09168018FEC808310927101E0913D
:100E60006D01F0916E0186E08083E0916B01F0915D
:100E70006C01808180618083E0916B01F0916C0155
:100E8000808188608083E0916B01F0916C018081AA
:100E900080688083E0916B01F0916C0180818F7D8F
:100EA000808388E00E9477018CE00E9477018DE0CA
:100EB0000E94770184E580934C0280E380934D0289
:100EC00010924B0210924E0210924F02E1E5F2E0B6
:100ED00080E4DF011D928A95E9F7809146020E9425
:100EE0007701809147020E947701809148020E9419
:100EF0007701809149020E94770180914A020E9405
:100F0000770161E0809149020E94960161E0809141
:100F10004A020E94960160E0809149020E94960177
:100F200064E670E080E090E00E94190261E0809148
:100F300049020E94960141E260E082E492E00E9450
:100F40005C0343E160E082E492E00E945C038091F4
:100F50004B0242EC813039F440EE60E082E492E0F2
:100F60000E945C0345E060E082E492E00E945C0342
:100F700040E260E082E492E00E945C0349E060E0CD
:100F800082E492E00E945C0380E00E948A031A825D
:100F9000198280914D0286958695869590914C0296
:100FA000899FC0011124E981FA81E817F90768F4E3
:100FB00040E061E082E492E00E945C0329813A8192
:100FC0002F5F3F4F3A832983E4CF80E00E948A035A
:100FD00048E060E082E492E00E945C034CE060E064
:100FE00082E492E00E945C0364E670E080E090E0BE
:100FF0000E94190240E860E082E492E00E945C03F3
:1010000040E460E082E492E00E945C03412C512CB9
:101010008AEF682E82EC782E409238025092390284
:1010200060923A0270923B02C12CD12C9AEFE92EC9
:1010300092E4F92EC0923C02D0923D02E0923E0230
:10104000F0923F028091400240912402509125028B
:101050005A834983882309F43CC3DA018D909D901B
:10106000AD90BC90A7019601C501B4010E94CA0DC4
:1010700018163CF5E981FA81C082D182E282F382BE
:1010800080902C0290902D02A0902E02B0902F0202
:10109000C0903C02D0903D02E0903E02F0903F02B2
:1010A000A7019601C501B4010E94CA0D1816DCF40F
:1010B000C0922C02D0922D02E0922E02F0922F02CA
:1010C00022C020E030E04AEF52ECC501B4010E949A
:1010D0006B0C87FFD5CFA981BA814D925D926D923D
:1010E0007C921397CDCFC0903802D0903902E09017
:1010F0003A02F0903B02A7019601C501B4010E949B
:101100006B0C87FDD5CF81E080934002222423948D
:101110008FE00E94E20140E28D3B92400CF444E2F9
:1011200060E082E492E00E945C038EE00E94E201B3
:101130002CE330E0DC010E94550E2EEF33E040E05E
:1011400050E00E94AE0BCA01B9016C5E7F4F8F4F19
:101150009F4F0E941A0D69837A838B839C836093CF
:10116000FA017093FB018093FC019093FD01409183
:10117000FE015091FF016091000270910102809187
:101180004C0181110EC080E090E0A8ECB1E48093A6
:10119000480190934901A0934A01B0934B012092DA
:1011A0004C018FB7F8940091F6011091F70120914E
:1011B000F8013091F9018FBF809144019091450170
:1011C000A0914601B0914701081B190B2A0B3B0B5C
:1011D000043611052105310508F46AC08C599F4F6A
:1011E000AF4FBF4F8093440190934501A0934601B8
:1011F000B0934701C0904801D0904901E0904A0166
:10120000F0904B01CB01BA010E94E20C072E000CBA
:10121000880B990B0E941A0D20E030E048EC51E455
:101220000E94CF0D20E030E04FE753E40E94700CA5
:1012300020E030E048EC52E40E94CF0D20E030E0A6
:101240004AE754E40E94700C20E030E040E251E4B0
:101250000E94700C2AE037ED43E65FE30E94700CB9
:10126000A70196010E94FF0B4B015C0120E030E0DA
:1012700048EC51E4C701B6010E94FE0B27E137EBB1
:1012800041ED58E30E94CF0D20E030E040EA50E409
:101290000E94CF0D9B01AC01C501B4010E94FE0B61
:1012A000609348017093490180934A0190934B01E8
:1012B0008091480190914901A0914A01B0914B0160
:1012C0008093020290930302A0930402B09305025C
:1012D00080914002882309F435C18FB7F89420919A
:1012E000F6013091F7014091F8015091F9012D87F5
:1012F0003E874F87588B8FBF80912802909129029B
:10130000A0912A02B0912B024D855E856F85788968
:10131000481B590B6A0B7B0B80913402909135026C
:10132000A0913602B0913702481759076A077B0728
:1013300008F408C1E0912202F0912302408051801C
:1013400062807380E0912602F0912702A30192014E
:1013500060817181828193810E94FE0B6B017C010F
:10136000209130023091310240913202509133028B
:10137000C301B2010E94FE0B6D837E838F83988729
:1013800020911602309117024091180250911902D3
:10139000C701B6010E94CF0D20912C0230912D0281
:1013A00040912E0250912F020E94FF0B4B015C01D5
:1013B00080922C0290922D02A0922E02B0922F02C7
:1013C0003090410231101CC0209112023091130262
:1013D00040911402509115026D817E818F81988514
:1013E0000E94CF0D9B01AC01C501B4010E94FE0B10
:1013F00060932C0270932D0280932E0290932F0203
:1014000080912C0290912D02A0912E02B0912F027A
:1014100089879A87AB87BC8710913C0290913D02E7
:101420009A8B00913E02A0913F02A98B212F392F68
:10143000402F5A2F69857A858B859C850E94CA0D1D
:1014400018160CF00CC1812F9A89A02FB9898093AE
:101450002C0290932D02A0932E02B0932F023320E2
:1014600009F418C120911202309113024091140224
:1014700050911502C701B6010E94CF0D6B017C018E
:1014800020911A0230911B0240911C0250911D02C2
:101490006D817E818F8198850E94CF0D9B01AC016B
:1014A00060912C0270912D0280912E0290912F025A
:1014B0000E94FE0BA70196010E94FF0B6B017C01AD
:1014C0009B01AC01612F7A89802F99890E946B0C56
:1014D00087FD18C010913802B0913902BA8B009183
:1014E0003A02E0913B02E98B212F3B2F402F5E2FE8
:1014F000B601C7010E946B0C87FD04C01C2DDA8A5F
:101500000E2DF98AE0912402F0912502812F9A890B
:10151000A02FB98980839183A283B3834092300244
:101520005092310260923202709233022D853E85D4
:101530004F855889209328023093290240932A022C
:1015400050932B0281E00E948A036DE271E082E4F5
:1015500092E00E94A90322E049815A816B817C813B
:1015600082E492E00E94040482E00E948A0362E323
:1015700071E082E492E00E94A9034091FE01509143
:10158000FF01609100027091010222E082E492E08A
:101590000E94040483E00E948A036CE371E082E409
:1015A00092E00E94A90340910202509103026091CF
:1015B00004027091050222E082E492E00E94040499
:1015C0006091FA017091FB018091FC019091FD0105
:1015D0000E94F2046091FE017091FF01809100026F
:1015E000909101020E94F204609102027091030244
:1015F00080910402909105020E94F20464EF71E070
:1016000080E090E00E941902C0900202D090030294
:10161000E0900402F090050220E030E040EF51E459
:10162000C701B6010E946B0C87FF38C061E088E0FB
:101630000E94960160E08DE00E94960160E08CE0DF
:101640000E94960140E050E0452B09F461CD0E94D4
:10165000B502882309F45CCD0E94000059CD80902A
:10166000380290903902A0903A02B0903B02A50156
:10167000940169857A858B859C850E946B0C87FF18
:10168000EECE80922C0290922D02A0922E02B09269
:101690002F02E5CEC12CD12C7601F2CE20E030E035
:1016A00048E252E4C701B6010E94CA0D61E0181673
:1016B00054F48DE00E94960160E08CE00E94960157
:1016C00060E088E0BDCF8CE00E94960160E08DE094
:1016D000F5CFA981BA818D909D90AD90BC908092FC
:1016E0002C0290922D02A0922E02B0922F02E09135
:1016F0002202F091230280819181A281B3818093A3
:10170000300290933102A0933202B093330220E072
:1017100030E04AEF52E4C501B4010E94CA0D181628
:101720000CF4C6CC20E030E04AEF52ECC501B40125
:101730000E946B0C87FFE7CC40922C0250922D0246
:1017400060922E0270922F02DECCFB01DC0102C0FF
:1017500005900D9241505040D8F70895052E97FB03
:101760001EF400940E94C50B57FD07D00E94CD0BBC
:1017700007FC03D04EF40C94C50B50954095309562
:1017800021953F4F4F4F5F4F0895909580957095ED
:1017900061957F4F8F4F9F4F0895A1E21A2EAA1B8C
:1017A000BB1BFD010DC0AA1FBB1FEE1FFF1FA21711
:1017B000B307E407F50720F0A21BB30BE40BF50B0E
:1017C000661F771F881F991F1A9469F76095709597
:1017D000809590959B01AC01BD01CF010895A29F1A
:1017E000B001B39FC001A39F700D811D1124911DF5
:1017F000B29F700D811D1124911D08955058BB2773
:10180000AA270E94160C0C94900D0E94820D38F0AD
:101810000E94890D20F039F49F3F19F426F40C94AE
:101820007F0D0EF4E095E7FB0C94790DE92F0E94F3
:10183000A10D58F3BA17620773078407950720F0C4
:1018400079F4A6F50C94C30D0EF4E0950B2EBA2F87
:10185000A02D0B01B90190010C01CA01A0011124B6
:10186000FF27591B99F0593F50F4503E68F11A1662
:10187000F040A22F232F342F4427585FF3CF4695F3
:1018800037952795A795F0405395C9F77EF41F1615
:10189000BA0B620B730B840BBAF09150A1F0FF0FDF
:1018A000BB1F661F771F881FC2F70EC0BA0F621FCB
:1018B000731F841F48F4879577956795B795F795BB
:1018C0009E3F08F0B0CF9395880F08F09927EE0F50
:1018D0009795879508950E94550D08F481E0089525
:1018E0000E94840C0C94900D0E94890D58F00E9467
:1018F000820D40F029F45F3F29F00C94790D5111CD
:101900000C94C40D0C947F0D0E94A10D68F39923D3
:10191000B1F3552391F3951B550BBB27AA276217EB
:101920007307840738F09F5F5F4F220F331F441FF8
:10193000AA1FA9F335D00E2E3AF0E0E832D091502C
:101940005040E695001CCAF72BD0FE2F29D0660F19
:10195000771F881FBB1F261737074807AB07B0E85C
:1019600009F0BB0B802DBF01FF2793585F4F3AF062
:101970009E3F510578F00C94790D0C94C40D5F3F97
:10198000E4F3983ED4F3869577956795B795F795E8
:101990009F5FC9F7880F911D9695879597F90895D0
:1019A000E1E0660F771F881FBB1F6217730784076C
:1019B000BA0720F0621B730B840BBA0BEE1F88F77B
:1019C000E09508950E94E90C6894B1110C94C40D3F
:1019D00008950E94A90D88F09F5798F0B92F992774
:1019E000B751B0F0E1F0660F771F881F991F1AF00A
:1019F000BA95C9F714C0B13091F00E94C30DB1E09F
:101A000008950C94C30D672F782F8827B85F39F09D
:101A1000B93FCCF3869577956795B395D9F73EF4A2
:101A200090958095709561957F4F8F4F9F4F08954A
:101A3000E89409C097FB3EF4909580957095619568
:101A40007F4F8F4F9F4F9923A9F0F92F96E9BB271E
:101A50009395F695879577956795B795F111F8CF9A
:101A6000FAF4BB0F11F460FF1BC06F5F7F4F8F4F05
:101A70009F4F16C0882311F096E911C0772321F0FB
:101A80009EE8872F762F05C0662371F096E8862F93
:101A900070E060E02AF09A95660F771F881FDAF7EA
:101AA000880F9695879597F90895990F0008550F17
:101AB000AA0BE0E8FEEF16161706E807F907C0F0D4
:101AC00012161306E407F50798F0621B730B840BDC
:101AD000950B39F40A2661F0232B242B252B21F4B6
:101AE00008950A2609F4A140A6958FEF811D811D56
:101AF000089597F99F6780E870E060E008959FEF90
:101B000080EC089500240A94161617061806090694
:101B1000089500240A941216130614060506089563
:101B2000092E0394000C11F4882352F0BB0F40F4EB
:101B3000BF2B11F460FF04C06F5F7F4F8F4F9F4F2B
:101B4000089557FD9058440F551F59F05F3F71F0AD
:101B50004795880F97FB991F61F09F3F79F0879514
:101B60000895121613061406551FF2CF4695F1DF9D
:101B700008C0161617061806991FF1CF869571052D
:101B8000610508940895E894BB2766277727CB0161
:101B900097F908950E94550D08F48FEF08950E945B
:101BA000E20D0C94900D0E94820D38F00E94890D78
:101BB00020F0952311F00C94790D0C947F0D1124D5
:101BC0000C94C40D0E94A10D70F3959FC1F3950F65
:101BD00050E0551F629FF001729FBB27F00DB11DB1
:101BE000639FAA27F00DB11DAA1F649F6627B00D41
:101BF000A11D661F829F2227B00DA11D621F739F2A
:101C0000B00DA11D621F839FA00D611D221F749F37
:101C10003327A00D611D231F849F600D211D822F7E
:101C2000762F6A2F11249F5750409AF0F1F08823A5
:101C30004AF0EE0FFF1FBB1F661F771F881F9150D2
:101C40005040A9F79E3F510580F00C94790D0C94FB
:101C5000C40D5F3FE4F3983ED4F38695779567957E
:101C6000B795F795E7959F5FC1F7FE2B880F911DFC
:101C70009695879597F908950E94550D880B990BB5
:101C8000089597FB072E16F4009407D077FD09D02E
:101C90000E945C0E07FC05D03EF4909581959F4F05
:101CA0000895709561957F4F08950E94EF0BB7FFDF
:101CB0000895821B930B0895AA1BBB1B51E107C01B
:101CC000AA1FBB1FA617B70710F0A61BB70B881FCC
:101CD000991F5A95A9F780959095BC01CD0108955B
:101CE000EE0FFF1F0590F491E02D0994F894FFCFBB
:101CF00000000000EB024B0278023803A9028702C1
:101D00009B020000000007054B02590358036E6157
:101D10006E00696E66006F7666000D0A0053503AD9
:101D20002000436F6E74726F6C3A200054656D70C2
:041D30003A20000055
:107E0000112484B714BE81FFF0D085E080938100F7
:107E100082E08093C00088E18093C10086E0809377
:107E2000C20080E18093C4008EE0C9D0259A86E02C
:107E300020E33CEF91E0309385002093840096BBD3
:107E4000B09BFECF1D9AA8958150A9F7CC24DD24C4
:107E500088248394B5E0AB2EA1E19A2EF3E0BF2EE7
:107E6000A2D0813461F49FD0082FAFD0023811F036
:107E7000013811F484E001C083E08DD089C08234E0
:107E800011F484E103C0853419F485E0A6D080C0E4
:107E9000853579F488D0E82EFF2485D0082F10E0AE
:107EA000102F00270E291F29000F111F8ED06801E7
:107EB0006FC0863521F484E090D080E0DECF843638
:107EC00009F040C070D06FD0082F6DD080E0C81688
:107ED00080E7D80618F4F601B7BEE895C0E0D1E017
:107EE00062D089930C17E1F7F0E0CF16F0E7DF06D8
:107EF00018F0F601B7BEE89568D007B600FCFDCFD4
:107F0000A601A0E0B1E02C9130E011968C91119780
:107F100090E0982F8827822B932B1296FA010C0160
:107F200087BEE89511244E5F5F4FF1E0A038BF0790
:107F300051F7F601A7BEE89507B600FCFDCF97BE46
:107F4000E89526C08437B1F42ED02DD0F82E2BD052
:107F50003CD0F601EF2C8F010F5F1F4F84911BD097
:107F6000EA94F801C1F70894C11CD11CFA94CF0C13
:107F7000D11C0EC0853739F428D08EE10CD085E9AC
:107F80000AD08FE07ACF813511F488E018D01DD067
:107F900080E101D065CF982F8091C00085FFFCCF94
:107FA0009093C60008958091C00087FFFCCF809118
:107FB000C00084FD01C0A8958091C6000895E0E648
:107FC000F0E098E1908380830895EDDF803219F02E
:107FD00088E0F5DFFFCF84E1DECF1F93182FE3DFCA
:107FE0001150E9F7F2DF1F91089580E0E8DFEE27F6
:047FF000FF270994CA
:027FFE00040479
:00000001FF
