:100000000C944D010C9475010C9475010C947501C0
:100010000C9475010C9475010C9475010C94750188
:100020000C9475010C9475010C9475010C94750178
:100030000C9475010C9475010C9475010C94750168
:100040000C94AA030C9475010C9475010C94750121
:100050000C9475010C9475010C9475010C94750148
:100060000C9475010C947501000000000000005F05
:1000700000000007000700147F147F14242A7F2A41
:10008000122313086462364955225000050300000C
:10009000001C2241000041221C0014083E081408E4
:1000A000083E0808005030000008080808080060F2
:1000B00060000020100804023E5149453E00427F86
:1000C000400042615149462141454B311814127F8D
:1000D0001027454545393C4A494930017109050316
:1000E0003649494936064949291E0036360000007E
:1000F0005636000008142241001414141414004150
:100100002214080201510906324979413E7E11113B
:10011000117E7F494949363E414141227F4141227A
:100120001C7F494949417F090909013E4149497AF2
:100130007F0808087F00417F41002040413F017F48
:10014000081422417F404040407F020C027F7F0420
:1001500008107F3E4141413E7F090909063E415159
:10016000215E7F09192946464949493101017F012C
:10017000013F4040403F1F2040201F3F4038403F4C
:100180006314081463070870080761514945430068
:100190007F41410002040810200041417F00040219
:1001A0000102044040404040000102040020545439
:1001B00054787F48444438384444442038444448C0
:1001C0007F3854545418087E0901020C5252523E92
:1001D0007F0804047800447D40002040443D007FB7
:1001E0001028440000417F40007C041804787C08FB
:1001F00004047838444444387C1414140808141453
:10020000187C7C080404084854545420043F44409B
:10021000203C4040207C1C2040201C3C4030403C86
:1002200044281028440C5050503C4464544C440022
:100230000836410000007F00000041360800100829
:100240000810080000000000000000080002010083
:100250000003040700000000000000000000000090
:10026000250028002B0000000000240027002A00A1
:10027000040404040404040402020202020203034C
:100280000303030301020408102040800102040854
:100290001020010204081020D40511241FBECFEF46
:1002A000D8E0DEBFCDBF11E0A0E0B1E0E4E8F0E1CE
:1002B00002C005900D92A032B107D9F721E0A0E26B
:1002C000B1E001C01D92A837B207E1F711E0CDE41B
:1002D000D1E004C02197FE010E943A08CC34D10736
:1002E000C9F70E94F4030C9440080C94000090E0BD
:1002F000FC01EC57FD4F249180599D4FFC018491E6
:10030000882399F090E0880F991FFC01EA59FD4F6E
:10031000A591B491FC01E45AFD4F859194918FB75A
:10032000F894EC91E22BEC938FBF089590E0FC01E0
:10033000E85BFD4F2491FC01EC57FD4F3491FC012B
:10034000E059FD4FE491EE23C9F0222339F0233028
:1003500001F1A8F4213019F1223029F1F0E0EE0F7B
:10036000FF1FE45AFD4FA591B4918FB7F894EC911B
:10037000611126C030953E233C938FBF08952730EE
:10038000A9F02830C9F0243049F7809180008F7D92
:1003900003C0809180008F7780938000DFCF84B589
:1003A0008F7784BDDBCF84B58F7DFBCF8091B0008C
:1003B0008F778093B000D2CF8091B0008F7DF9CF3E
:1003C0003E2BDACF8E50806480937C0080917A003F
:1003D000806480937A0080917A0086FDFCCF8091C2
:1003E00078009091790008953FB7F89480912501A5
:1003F00090912601A0912701B091280126B5A89BD4
:1004000005C02F3F19F00196A11DB11D3FBFBA2FA6
:10041000A92F982F8827BC01CD01620F711D811D66
:10042000911D42E0660F771F881F991F4A95D1F7EB
:1004300008958F929F92AF92BF92CF92DF92EF92E8
:10044000FF924B015C010E94F4016B017C010E9450
:10045000F4016C197D098E099F09683E734081057E
:100460009105A8F321E0821A9108A108B10888EE4D
:10047000C80E83E0D81EE11CF11C81149104A10474
:10048000B10429F7FF90EF90DF90CF90BF90AF902D
:100490009F908F900895AF92BF92CF92DF92EF928C
:1004A000FF920F931F93CF93DF936C017B018B011E
:1004B000040F151FEB015E01AE18BF08C017D1076E
:1004C00059F06991D601ED91FC910190F081E02DF8
:1004D000C6010995892B79F7C501DF91CF911F914D
:1004E0000F91FF90EF90DF90CF90BF90AF90089565
:1004F000089590E080E00895FC0101900020E9F764
:100500003197AF01481B590BBC0189E291E00C9473
:100510004B028F929F92AF92BF920F931F93CF93F4
:10052000DF93CDB7DEB7A1970FB6F894DEBF0FBE4D
:10053000CDBF19A2423008F44AE08E010F5D1F4F73
:10054000842E912CB12CA12CA50194010E9410069F
:10055000E62FB901CA01EA30F4F4E05DD801EE9368
:100560008D01232B242B252B79F790E080E0109729
:1005700019F0CD010E947C02A1960FB6F894DEBF5F
:100580000FBECDBFDF91CF911F910F91BF90AF9064
:100590009F908F900895E95CE1CFEF92FF920F93C7
:1005A0001F93CF93DF93EC01042F8E810E9496015D
:1005B00060E088850E949601FC80ED8018E0602F45
:1005C000661F6627661F8E2D0E949601000F61E050
:1005D0008F2D0E94960160E08F2D0E949601115090
:1005E00071F761E08885DF91CF911F910F91FF90A6
:1005F000EF900C949601CF93DF93C9E2D1E01C8673
:100600001D8640E860E0CE010E94CD024D85406429
:1006100060E0CE01DF91CF910C94CD02CF93DF93B8
:100620000E94FB02D0E0C0E080913401869586955F
:10063000869590913301899FC0011124C817D9076D
:1006400040F440E061E089E291E00E94CD02219611
:10065000EBCFDF91CF910C94FB02CF92DF92EF9220
:10066000FF920F931F93CF93DF9300D000D01F9280
:10067000CDB7DEB767FD6BC07C01862F90E060329E
:1006800008F455C0809725E0289FB001299F700D80
:10069000112468597F4F45E050E0CE0101960E9439
:1006A000E8058E010F5F1F4F680185E0C80ED11C61
:1006B000F80141918F01F70186858111409561E034
:1006C000C7010E94CD020C151D0591F7F701468563
:1006D000419561E0C7010E94CD02F701848590E059
:1006E0000696628570E00E940B088487892B79F456
:1006F000858590E00196638529E3629F612D112431
:10070000669570E06F5F7F4F0E940B08858781E0E0
:1007100090E00F900F900F900F900F90DF91CF917E
:100720001F910F91FF90EF90DF90CF900895880F69
:10073000991FF701E80FF91F0785108901151105A9
:1007400009F0B2CF45E050E068E670E0A6CF90E057
:1007500080E0DFCF1F920F920FB60F9211242F93DC
:100760003F938F939F93AF93BF938091210190917B
:100770002201A0912301B09124013091200123E0B6
:10078000230F2D3758F50196A11DB11D209320018F
:100790008093210190932201A0932301B09324011F
:1007A0008091250190912601A0912701B091280107
:1007B0000196A11DB11D8093250190932601A09360
:1007C0002701B0932801BF91AF919F918F913F91E5
:1007D0002F910F900FBE0F901F90189526E8230FB2
:1007E0000296A11DB11DD2CF789484B5826084BDDC
:1007F00084B5816084BD85B5826085BD85B5816025
:1008000085BD80916E00816080936E0010928100A2
:10081000809181008260809381008091810081605D
:10082000809381008091800081608093800080911E
:10083000B10084608093B1008091B00081608093AA
:10084000B00080917A00846080937A0080917A0071
:10085000826080937A0080917A00816080937A0030
:1008600080917A00806880937A001092C10088E0BD
:100870000E9477018CE00E9477018DE00E94770151
:1008800084E58093330180E3809334011092320138
:100890001092350110923601E8E3F1E080E4DF01C7
:1008A0001D928A95E9F780912D010E947701809130
:1008B0002E010E94770180912F010E947701809183
:1008C00030010E947701809131010E94770161E03F
:1008D000809130010E94960161E0809131010E9477
:1008E000960160E0809130010E94960164E670E01C
:1008F00080E090E00E94190261E0809130010E9446
:10090000960141E260E089E291E00E94CD0243E17C
:1009100060E089E291E00E94CD028091320142ECD8
:10092000813039F440EE60E089E291E00E94CD022E
:1009300045E060E089E291E00E94CD0240E260E0A3
:1009400089E291E00E94CD0249E060E089E291E015
:100950000E94CD020E940E0348E060E089E291E02F
:100960000E94CD024CE060E089E291E00E94CD025D
:1009700064E670E080E090E00E94190240E860E0E8
:1009800089E291E00E94CD0240E460E089E291E0DA
:100990000E94CD02C0E0D0E08FE00E94E20140E280
:1009A0008D3B92400CF444E260E089E291E00E94C9
:1009B000CD020E940E030E94FB028EE00E94E20123
:1009C0002CE330E0DC010E941F082EEF33E040E012
:1009D00050E00E94F105CA01B9016C5E7F4F8F4F54
:1009E0009F4F0E94E4066B017C018CE091E00E9425
:1009F0007C02A7019601C701B6010E940608882360
:100A000031F183E191E00E947C0264EF71E080E0CB
:100A100090E00E94190220E030E040EF51E4C7016D
:100A2000B6010E94AE0687FFA4C061E088E00E9484
:100A3000960160E08DE00E94960160E08CE00E94EB
:100A40009601209709F4A8CF0E940000A5CF460187
:100A50005701E894B7F82FEF3FEF4FE75FE7C50185
:100A6000B4010E94060881110DC02FEF3FEF4FE740
:100A70005FE7C501B4010E94AE0618161CF487E1B9
:100A800091E0C1CF2FEF3FEF4FE75FE4C701B60121
:100A90000E94940718161CF48BE191E0B4CF2FEF5D
:100AA0003FEF4FE75FECC701B6010E94AE0687FD3E
:100AB000F3CF20E030E0A901C701B6010E94AE06E5
:100AC00087FF54C06DE289E291E00E942D03C701C7
:100AD000B60190582AE037ED43EA5BE30E944206F4
:100AE0002B013C010E94B3064B015C010E94E2060F
:100AF0009B01AC01C301B2010E9441062B013C01E4
:100B00004AE0C501B4010E9489026EE289E291E0E7
:100B10000E942D0320E030E040E251E4C301B20125
:100B20000E9499072B013C010E94B3064B01B12C96
:100B3000A12C4AE0C501B4010E948902C501B4019B
:100B40000E94E2069B01AC01C301B2010E94410672
:100B500020E030E040E251E40E9499070E94B30691
:100B600090E080E04AE00E9489024FCFC701B601C1
:100B7000B1CF20E030E048E252E4C701B6010E9464
:100B8000940761E0181654F48DE00E94960160E02D
:100B90008CE00E94960160E088E051CF8CE00E94DA
:100BA000960160E08DE0F5CFE9E2F1E01382128278
:100BB00084E091E09183808383E0848384E0858373
:100BC00085E0868386E0878387E0808716860895A0
:100BD000FB01DC0102C005900D9241505040D8F756
:100BE0000895052E97FB1EF400940E94080657FDF9
:100BF00007D00E94100607FC03D04EF40C940806A0
:100C000050954095309521953F4F4F4F5F4F089538
:100C100090958095709561957F4F8F4F9F4F089568
:100C2000A1E21A2EAA1BBB1BFD010DC0AA1FBB1FF0
:100C3000EE1FFF1FA217B307E407F50720F0A21B62
:100C4000B30BE40BF50B661F771F881F991F1A94CF
:100C500069F760957095809590959B01AC01BD01F9
:100C6000CF010895A29FB001B39FC001A39F700D53
:100C7000811D1124911DB29F700D811D1124911DA4
:100C800008955058BB27AA270E9459060C945A076A
:100C90000E944C0738F00E94530720F039F49F3F20
:100CA00019F426F40C9449070EF4E095E7FB0C9434
:100CB0004307E92F0E946B0758F3BA1762077307BF
:100CC0008407950720F079F4A6F50C948D070EF4AF
:100CD000E0950B2EBA2FA02D0B01B90190010C014C
:100CE000CA01A0011124FF27591B99F0593F50F464
:100CF000503E68F11A16F040A22F232F342F4427BC
:100D0000585FF3CF469537952795A795F0405395B3
:100D1000C9F77EF41F16BA0B620B730B840BBAF083
:100D20009150A1F0FF0FBB1F661F771F881FC2F7EE
:100D30000EC0BA0F621F731F841F48F48795779502
:100D40006795B795F7959E3F08F0B0CF9395880FBC
:100D500008F09927EE0F9795879508950E941F0731
:100D600008F481E008950E94730788F09F5798F077
:100D7000B92F9927B751B0F0E1F0660F771F881FA0
:100D8000991F1AF0BA95C9F714C0B13091F00E94BA
:100D90008D07B1E008950C948D07672F782F882771
:100DA000B85F39F0B93FCCF3869577956795B395E1
:100DB000D9F73EF490958095709561957F4F8F4F50
:100DC0009F4F0895E89409C097FB3EF49095809555
:100DD000709561957F4F8F4F9F4F9923A9F0F92F01
:100DE00096E9BB279395F695879577956795B7957F
:100DF000F111F8CFFAF4BB0F11F460FF1BC06F5F65
:100E00007F4F8F4F9F4F16C0882311F096E911C076
:100E1000772321F09EE8872F762F05C0662371F097
:100E200096E8862F70E060E02AF09A95660F771FAB
:100E3000881FDAF7880F9695879597F90895990F87
:100E40000008550FAA0BE0E8FEEF16161706E80794
:100E5000F907C0F012161306E407F50798F0621BB5
:100E6000730B840B950B39F40A2661F0232B242B8A
:100E7000252B21F408950A2609F4A140A6958FEFA9
:100E8000811D811D089597F99F6780E870E060E0FB
:100E900008959FEF80EC089500240A941616170613
:100EA00018060906089500240A941216130614065B
:100EB00005060895092E0394000C11F4882352F0BE
:100EC000BB0F40F4BF2B11F460FF04C06F5F7F4F76
:100ED0008F4F9F4F089557FD9058440F551F59F05D
:100EE0005F3F71F04795880F97FB991F61F09F3F17
:100EF00079F087950895121613061406551FF2CF40
:100F00004695F1DF08C0161617061806991FF1CF8F
:100F100086957105610508940895E894BB276627B6
:100F20007727CB0197F908950E941F0708F48FEFE8
:100F300008950E94AC070C945A070E944C0738F0A1
:100F40000E94530720F0952311F00C9443070C9452
:100F5000490711240C948E070E946B0770F3959F2C
:100F6000C1F3950F50E0551F629FF001729FBB27A0
:100F7000F00DB11D639FAA27F00DB11DAA1F649F3C
:100F80006627B00DA11D661F829F2227B00DA11DEF
:100F9000621F739FB00DA11D621F839FA00D611D75
:100FA000221F749F3327A00D611D231F849F600D96
:100FB000211D822F762F6A2F11249F5750409AF0BF
:100FC000F1F088234AF0EE0FFF1FBB1F661F771F4B
:100FD000881F91505040A9F79E3F510580F00C9416
:100FE00043070C948E075F3FE4F3983ED4F3869555
:100FF00077956795B795F795E7959F5FC1F7FE2BB6
:10100000880F911D9695879597F908950E941F075F
:10101000880B990B089597FB072E16F4009407D0C0
:1010200077FD09D00E94260807FC05D03EF4909574
:1010300081959F4F0895709561957F4F08950E9407
:101040003206B7FF0895821B930B0895AA1BBB1BA2
:1010500051E107C0AA1FBB1FA617B70710F0A61BB8
:10106000B70B881F991F5A95A9F780959095BC01D9
:10107000CD010895EE0FFF1F0590F491E02D099426
:04108000F894FFCF12
:10108400000000002D034B027902780254656D7054
:101094003A20006E616E00696E66006F766600002D
:00000001FF
