:020000040000FA
:100000000C944D010C9475010C9475010C947501C0
:100010000C9475010C9475010C9475010C94750188
:100020000C9475010C9475010C9475010C94750178
:100030000C9475010C9475010C9475010C94750168
:100040000C946F050C9475010C94DF050C94B905A4
:100050000C9475010C9475010C9475010C94750148
:100060000C9475010C947501000000000000005F05
:1000700000000007000700147F147F14242A7F2A41
:10008000122313086462364955225000050300000C
:10009000001C2241000041221C0014083E081408E4
:1000A000083E0808005030000008080808080060F2
:1000B00060000020100804023E5149453E00427F86
:1000C000400042615149462141454B311814127F8D
:1000D0001027454545393C4A494930017109050316
:1000E0003649494936064949291E0036360000007E
:1000F0005636000008142241001414141414004150
:100100002214080201510906324979413E7E11113B
:10011000117E7F494949363E414141227F4141227A
:100120001C7F494949417F090909013E4149497AF2
:100130007F0808087F00417F41002040413F017F48
:10014000081422417F404040407F020C027F7F0420
:1001500008107F3E4141413E7F090909063E415159
:10016000215E7F09192946464949493101017F012C
:10017000013F4040403F1F2040201F3F4038403F4C
:100180006314081463070870080761514945430068
:100190007F41410002040810200041417F00040219
:1001A0000102044040404040000102040020545439
:1001B00054787F48444438384444442038444448C0
:1001C0007F3854545418087E0901020C5252523E92
:1001D0007F0804047800447D40002040443D007FB7
:1001E0001028440000417F40007C041804787C08FB
:1001F00004047838444444387C1414140808141453
:10020000187C7C080404084854545420043F44409B
:10021000203C4040207C1C2040201C3C4030403C86
:1002200044281028440C5050503C4464544C440022
:100230000836410000007F00000041360800100829
:100240000810080000000000000000080002010083
:100250000003040700000000000000000000000090
:10026000250028002B0000000000240027002A00A1
:10027000040404040404040402020202020203034C
:100280000303030301020408102040800102040854
:100290001020010204081020110611241FBECFEF08
:1002A000D8E0DEBFCDBF11E0A0E0B1E0EEE1FDE1BE
:1002B00002C005900D92A634B107D9F722E0A6E45A
:1002C000B1E001C01D92A339B207E1F711E0CDE41E
:1002D000D1E004C02197FE010E94870ECC34D107E3
:1002E000C9F70E94BE060C948D0E0C94000090E09D
:1002F000FC01EC57FD4F249180599D4FFC018491E6
:10030000882399F090E0880F991FFC01EA59FD4F6E
:10031000A591B491FC01E45AFD4F859194918FB75A
:10032000F894EC91E22BEC938FBF089590E0FC01E0
:10033000E85BFD4F2491FC01EC57FD4F3491FC012B
:10034000E059FD4FE491EE23C9F0222339F0233028
:1003500001F1A8F4213019F1223029F1F0E0EE0F7B
:10036000FF1FE45AFD4FA591B4918FB7F894EC911B
:10037000611126C030953E233C938FBF08952730EE
:10038000A9F02830C9F0243049F7809180008F7D92
:1003900003C0809180008F7780938000DFCF84B589
:1003A0008F7784BDDBCF84B58F7DFBCF8091B0008C
:1003B0008F778093B000D2CF8091B0008F7DF9CF3E
:1003C0003E2BDACF8E50806480937C0080917A003F
:1003D000806480937A0080917A0086FDFCCF8091C2
:1003E00078009091790008953FB7F8948091570173
:1003F00090915801A0915901B0915A0126B5A89B3E
:1004000005C02F3F19F00196A11DB11D3FBFBA2FA6
:10041000A92F982F8827BC01CD01620F711D811D66
:10042000911D42E0660F771F881F991F4A95D1F7EB
:1004300008958F929F92AF92BF92CF92DF92EF92E8
:10044000FF924B015C010E94F4016B017C010E9450
:10045000F4016C197D098E099F09683E734081057E
:100460009105A8F321E0821A9108A108B10888EE4D
:10047000C80E83E0D81EE11CF11C81149104A10474
:10048000B10429F7FF90EF90DF90CF90BF90AF902D
:100490009F908F900895AF92BF92CF92DF92EF928C
:1004A000FF920F931F93CF93DF936C017B018B011E
:1004B000040F151FEB015E01AE18BF08C017D1076E
:1004C00059F06991D601ED91FC910190F081E02DF8
:1004D000C6010995892B79F7C501DF91CF911F914D
:1004E0000F91FF90EF90DF90CF90BF90AF90089565
:1004F000FC01538D448D252F30E0842F90E0821B2A
:10050000930B541710F0CF96089501970895FC01AE
:10051000918D828D981761F0A28DAE0FBF2FB11D06
:100520005D968C91928D9F5F9F73928F90E008955E
:100530008FEF9FEF0895FC01918D828D981731F018
:10054000828DE80FF11D858D90E008958FEF9FEF6C
:100550000895FC01918D228D892F90E0805C9F4F42
:10056000821B91098F73992708958BE591E00E9472
:10057000A90221E0892B09F420E0822F089580E070
:1005800090E0892B29F00E94B50281110C940000A3
:100590000895FC01A48DA80FB92FB11DA35ABF4F18
:1005A0002C91848D90E001968F739927848FA68972
:1005B000B7892C93A089B1898C91837080648C93C6
:1005C000938D848D981306C00288F389E02D808175
:1005D0008F7D80830895EF92FF920F931F93CF93A7
:1005E000DF93EC0181E0888F9B8D8C8D98131AC06E
:1005F000E889F989808185FF15C09FB7F894EE8955
:10060000FF896083E889F9898081837080648083B1
:100610009FBF81E090E0DF91CF911F910F91FF90FC
:10062000EF900895F62E0B8D10E00F5F1F4F0F73A4
:100630001127E02E8C8D8E110CC00FB607FCFACF5F
:10064000E889F989808185FFF5CFCE010E94C90232
:10065000F1CFEB8DEC0FFD2FF11DE35AFF4FF08230
:100660009FB7F8940B8FEA89FB8980818062CFCF96
:10067000CF93DF93EC01888D8823B9F0AA89BB89D9
:10068000E889F9898C9185FD03C0808186FD0DC0C4
:100690000FB607FCF7CF8C9185FFF2CF808185FFE5
:1006A000EDCFCE010E94C902E9CFDF91CF9108952D
:1006B000089590E080E00895EF92FF920F931F93CA
:1006C000CF93DF93EC01042F8E810E94960160E0AE
:1006D00088850E949601FC80ED8018E0602F661FDF
:1006E0006627661F8E2D0E949601000F61E08F2DF8
:1006F0000E94960160E08F2D0E949601115071F7C3
:1007000061E08885DF91CF911F910F91FF90EF906D
:100710000C949601CF93DF93C4E4D2E01C8690E062
:100720006B8529E3629F612D1124669570E06F5FF0
:100730007F4F0E94580E8D8740E860E0CE010E94F6
:100740005C034D85406460E0CE01DF91CF910C9455
:100750005C03FB0101900020E9F73197AF01461BD4
:10076000570BDC01ED91FC910280F381E02D09949F
:100770008F929F92AF92BF92EF92FF920F931F932F
:10078000CF93DF93CDB7DEB7A1970FB6F894DEBF56
:100790000FBECDBF7C01FA01CB0119A2223008F4B3
:1007A0002AE08E010F5D1F4F822E912CB12CA12CBF
:1007B000BF01A50194010E94E40BF901CA016A304E
:1007C0000CF5605DD8016E938D01232B242B252B16
:1007D00079F790E080E0109721F0BD01C7010E94F9
:1007E000A903A1960FB6F894DEBF0FBECDBFDF916F
:1007F000CF911F910F91FF90EF90BF90AF909F907E
:100800008F900895695CDECF2F923F924F925F9256
:100810006F927F928F929F92AF92BF92CF92DF9210
:10082000EF92FF921F93CF93DF93EC016A017B015C
:10083000722EAB019601CB01B6010E94530E6EE100
:1008400071E0811126C046015701E894B7F82FEFF7
:100850003FEF4FE75FE7C501B4010E94530E8111DE
:100860000CC02FEF3FEF4FE75FE7C501B4010E94D7
:10087000820C62E271E0181664F02FEF3FEF4FE751
:100880005FE4C701B6010E94E10D1816B4F466E2F8
:1008900071E0CE01DF91CF911F91FF90EF90DF903B
:1008A000CF90BF90AF909F908F907F906F905F9010
:1008B0004F903F902F900C94A9032FEF3FEF4FE7FD
:1008C0005FECC701B6010E94820C87FDE0CF20E0FB
:1008D00030E0A901C701B6010E94820C312C212C05
:1008E00087FF0DC0E881F9810190F081E02D6DE274
:1008F000CE0109951C01F7FAF094F7F8F09410E096
:1009000060E070E080E09FE3711641F020E030E0AD
:1009100040E251E40E94870C1F5FF6CFA7019601C9
:100920000E94160C2B013C010E94000D4B015C0142
:100930002AE0BC01A401CE010E94B8037C01E20CB4
:10094000F31C1123E1F1C501B4010E942F0D9B019D
:10095000AC01C301B2010E94150C4B015C01E8819E
:10096000F9810190F081E02D6EE2CE010995E80E4B
:10097000F91E115020F120E030E040E251E4C501C1
:10098000B4010E94E60D2B013C010E94000D4B01B9
:10099000B12CA12C2AE0B501A401CE010E94B8031C
:1009A000E80EF91EC501B4010E942F0D9B01AC0198
:1009B000C301B2010E94150C4B015C01DACFC701E3
:1009C000DF91CF911F91FF90EF90DF90CF90BF907C
:1009D000AF909F908F907F906F905F904F903F90DF
:1009E0002F900895CF92DF92EF92FF920F931F9373
:1009F000CF93DF9300D000D01F92CDB7DEB767FD55
:100A00006BC07C01862F90E0603208F455C080975F
:100A100025E0289FB001299F700D112468597F4F50
:100A200045E050E0CE0101960E94BC0B8E010F5FA5
:100A30001F4F680185E0C80ED11CF80141918F015C
:100A4000F70186858111409561E0C7010E945C0332
:100A50000C151D0591F7F7014685419561E0C70129
:100A60000E945C03F701848590E00696628570E041
:100A70000E94580E8487892B79F4858590E0019631
:100A8000638529E3629F612D1124669570E06F5F95
:100A90007F4F0E94580E858781E090E00F900F9065
:100AA0000F900F900F90DF91CF911F910F91FF90BA
:100AB000EF90DF90CF900895880F991FF701E80F0E
:100AC000F91F078510890115110509F0B2CF45E01E
:100AD00050E068E670E0A6CF90E080E0DFCF1F92A4
:100AE0000F920FB60F9211242F933F938F939F93E2
:100AF000AF93BF938091F8019091F901A091FA0111
:100B0000B091FB013091560123E0230F2D3758F5AA
:100B10000196A11DB11D209356018093F801909379
:100B2000F901A093FA01B093FB01809157019091D4
:100B30005801A0915901B0915A010196A11DB11D12
:100B40008093570190935801A0935901B0935A0193
:100B5000BF91AF919F918F913F912F910F900FBEB9
:100B60000F901F90189526E8230F0296A11DB11D26
:100B7000D2CF1F920F920FB60F9211242F933F9353
:100B80004F935F936F937F938F939F93AF93BF9395
:100B9000EF93FF938BE591E00E94C902FF91EF91E3
:100BA000BF91AF919F918F917F916F915F914F9185
:100BB0003F912F910F900FBE0F901F9018951F928D
:100BC0000F920FB60F9211242F938F939F93EF9351
:100BD000FF93E0916B01F0916C018081E0917101D4
:100BE000F091720182FD1BC09081809174018F5F32
:100BF0008F7320917501821741F0E0917401F0E04C
:100C0000E55AFE4F958F80937401FF91EF919F916C
:100C10008F912F910F900FBE0F901F90189580818C
:100C2000F4CFEBE5F1E01382128288EE93E0A0E0CE
:100C3000B0E084839583A683B78384E091E09183B9
:100C4000808385EC90E09587848784EC90E097879B
:100C5000868780EC90E0918B808B81EC90E0938B89
:100C6000828B82EC90E0958B848B86EC90E0978B66
:100C7000868B118E128E138E148EE4E4F2E01382B2
:100C8000128286E191E09183808383E0848384E013
:100C9000858385E0868386E0878387E08087168664
:100CA000E8E0F2E080E092E0978F868F84E092E0C7
:100CB000958F848F8CEF91E091A380A312AE12AA3E
:100CC00013AA14AA15AA80E090E0AFE7B3E486ABBC
:100CD00097ABA0AFB1AF84E690E0A0E0B0E086A70C
:100CE00097A7A0ABB1AB118E108E81E090E0938FEF
:100CF000828F83AF80E090E0A0E7B1E480839183AE
:100D0000A283B38340E050E060E07FE344835583F7
:100D10006683778340E050E060E87FE34087518757
:100D20006287738784879587A687B7878DEC9CEC4D
:100D3000ACE4BDE3808B918BA28BB38B80E090E021
:100D4000A0E2B1E4848B958BA68BB78B2FB7F89478
:100D50008091F8019091F901A091FA01B091FB0105
:100D60002FBF46A557A560A971A9841B950BA60B9B
:100D7000B70B82A393A3A4A3B5A30895CF93DF9346
:100D8000CDB7DEB762970FB6F894DEBF0FBECDBF0A
:100D9000789484B5826084BD84B5816084BD85B556
:100DA000826085BD85B5816085BD80916E00816062
:100DB00080936E0010928100809181008260809308
:100DC000810080918100816080938100809180000A
:100DD0008160809380008091B10084608093B10035
:100DE0008091B00081608093B00080917A0084602F
:100DF00080937A0080917A00826080937A0080915B
:100E00007A00816080937A0080917A008068809374
:100E10007A001092C100E0916B01F0916C0182E0C8
:100E20008083E0916701F09168011082E09169018F
:100E3000F0916A018FEC808310927301E0916F0151
:100E4000F091700186E08083E0916D01F0916E0178
:100E5000808180618083E0916D01F0916E018081DD
:100E600088608083E0916D01F0916E0180818068DF
:100E70008083E0916D01F0916E0180818F7D808390
:100E800088E00E9477018CE00E9477018DE00E944B
:100E9000770184E580934E0280E380934F021092A5
:100EA0004D021092500210925102E3E5F2E080E40C
:100EB000DF011D928A95E9F7809148020E9477012F
:100EC000809149020E94770180914A020E94770135
:100ED00080914B020E94770180914C020E94770121
:100EE00061E080914B020E94960161E080914C028A
:100EF0000E94960160E080914B020E94960164E698
:100F000070E080E090E00E94190261E080914B0265
:100F10000E94960141E260E084E492E00E945C035A
:100F200043E160E084E492E00E945C0380914D0222
:100F300042EC813039F440EE60E084E492E00E94BB
:100F40005C0345E060E084E492E00E945C0340E2E0
:100F500060E084E492E00E945C0349E060E084E4A5
:100F600092E00E945C0380E00E948A031A82198248
:100F700080914F0286958695869590914E02899F25
:100F8000C0011124E981FA81E817F90768F440E00B
:100F900061E084E492E00E945C0329813A812F5F42
:100FA0003F4F3A832983E4CF80E00E948A0348E0E0
:100FB00060E084E492E00E945C034CE060E084E442
:100FC00092E00E945C0364E670E080E090E00E94A2
:100FD000190240E860E084E492E00E945C0340E48F
:100FE00060E084E492E00E945C03412C512C8AEF83
:100FF000682E82EC782E40923A0250923B02609228
:101000003C0270923D02C12CD12C9AEFE92E92E461
:10101000F92EC0923E02D0923F02E0924002F0923E
:1010200041028091420240912602509127025A8348
:101030004983882309F464C3DA018D909D90AD90B3
:10104000BC90A7019601C501B4010E94E10D1816DC
:101050003CF5E981FA81C082D182E282F3828090FC
:101060002E0290902F02A0903002B0903102C090DA
:101070003E02D0903F02E0904002F0904102A70172
:101080009601C501B4010E94E10D1816DCF4C0926E
:101090002E02D0922F02E0923002F092310222C052
:1010A00020E030E04AEF52ECC501B4010E94820C0E
:1010B00087FFD5CFA981BA814D925D926D927C92C6
:1010C0001397CDCFC0903A02D0903B02E0903C0203
:1010D000F0903D02A7019601C501B4010E94820C67
:1010E00087FDD5CF81E080934202222423948FE0B4
:1010F0000E94E20140E28D3B92400CF444E260E049
:1011000084E492E00E945C038EE00E94E2012CE302
:1011100030E0DC010E946C0E2EEF33E040E050E046
:101120000E94C50BCA01B9016C5E7F4F8F4F9F4F64
:101130000E94310D69837A838B839C836093FC01C9
:101140007093FD018093FE019093FF014091000296
:1011500050910102609102027091030280914E0150
:1011600081110EC080E090E0A8ECB1E480934A01C8
:1011700090934B01A0934C01B0934D0120924E01EE
:101180008FB7F8940091F8011091F9012091FA01BC
:101190003091FB018FBF8091460190914701A09152
:1011A0004801B0914901081B190B2A0B3B0B04366F
:1011B00011052105310508F46AC08C599F4FAF4FC6
:1011C000BF4F8093460190934701A0934801B0938D
:1011D0004901C0904A01D0904B01E0904C01F09041
:1011E0004D01CB01BA010E94F90C072E000C880BAF
:1011F000990B0E94310D20E030E048EC51E40E9450
:10120000E60D20E030E04FE753E40E94870C20E039
:1012100030E048EC52E40E94E60D20E030E04AE77E
:1012200054E40E94870C20E030E040E251E40E9448
:10123000870C2AE037ED43E65FE30E94870CA701A5
:1012400096010E94160C4B015C0120E030E048EC56
:1012500051E4C701B6010E94150C27E137EB41EDBF
:1012600058E30E94E60D20E030E040EA50E40E949E
:10127000E60D9B01AC01C501B4010E94150C609301
:101280004A0170934B0180934C0190934D018091E2
:101290004A0190914B01A0914C01B0914D01809376
:1012A000040290930502A0930602B0930702809176
:1012B0004202882309F435C18FB7F8942091F801D0
:1012C0003091F9014091FA015091FB012D873E8741
:1012D0004F87588B8FBF80912A0290912B02A0914B
:1012E0002C02B0912D024D855E856F857889481B53
:1012F000590B6A0B7B0B8091360290913702A091BB
:101300003802B0913902481759076A077B0708F479
:1013100008C1E0912402F091250240805180628052
:101320007380E0912802F0912902A301920160816B
:101330007181828193810E94150C6B017C01209147
:101340003202309133024091340250913502C30190
:10135000B2010E94150C6D837E838F839887209144
:1013600018023091190240911A0250911B02C701D4
:10137000B6010E94E60D20912E0230912F0240917D
:101380003002509131020E94160C4B015C01809298
:101390002E0290922F02A0923002B0923102309031
:1013A000430231101CC0209114023091150240916B
:1013B0001602509117026D817E818F8198850E945F
:1013C000E60D9B01AC01C501B4010E94150C6093B0
:1013D0002E0270932F0280933002909331028091FD
:1013E0002E0290912F02A0913002B0913102898794
:1013F0009A87AB87BC8710913E0290913F029A8BEF
:1014000000914002A0914102A98B212F392F402F3A
:101410005A2F69857A858B859C850E94E10D181667
:101420000CF034C1812F9A89A02FB98980932E02A4
:1014300090932F02A0933002B0933102332009F42D
:1014400040C1209114023091150240911602509132
:101450001702C701B6010E94E60D6B017C012091C5
:101460001C0230911D0240911E0250911F026D819D
:101470007E818F8198850E94E60D9B01AC01609171
:101480002E0270912F0280913002909131020E94C1
:10149000150CA70196010E94160C6B017C019B01A3
:1014A000AC01612F7A89802F99890E94820C87FD77
:1014B00018C010913A02B0913B02BA8B00913C02E5
:1014C000E0913D02E98B212F3B2F402F5E2FB6018B
:1014D000C7010E94820C87FD04C01C2DDA8A0E2DE4
:1014E000F98AE0912602F0912702812F9A89A02F94
:1014F000B98980839183A283B38340923202509250
:10150000330260923402709235022D853E854F85FC
:10151000588920932A0230932B0240932C02509337
:101520002D0281E00E948A036AE271E084E492E085
:101530000E94A90322E049815A816B817C8184E465
:1015400092E00E94040482E00E948A036FE271E04C
:1015500084E492E00E94A9034091000250910102AC
:10156000609102027091030222E084E492E00E9402
:10157000040483E00E948A0369E371E084E492E05A
:101580000E94A90340910402509105026091060255
:101590007091070222E084E492E00E94040480E15A
:1015A0000E94E2018D3B92400CF43FC04091FC014F
:1015B0005091FD016091FE017091FF0122E08BE5E9
:1015C00091E00E94040460E471E08BE591E00E94E8
:1015D000A9034091000250910102609102027091B2
:1015E000030222E08BE591E00E94040460E471E0D4
:1015F0008BE591E00E94A9034091040250910502FD
:10160000609106027091070222E08BE591E00E9452
:10161000040462E471E08BE591E00E94A90364EFA9
:1016200071E080E090E00E94190264EF71E080E0D8
:1016300090E00E941902C0900402D0900502E09050
:101640000602F090070220E030E040EF51E4C701CD
:10165000B6010E94820C87FF38C061E088E00E94DA
:10166000960160E08DE00E94960160E08CE00E94AF
:10167000960140E050E0452B09F439CD0E94B502B7
:10168000882309F434CD0E94000031CD80903A02C5
:1016900090903B02A0903C02B0903D02A5019401C5
:1016A00069857A858B859C850E94820C87FFC6CED2
:1016B00080922E0290922F02A0923002B0923102BC
:1016C000BDCEC12CD12C7601CACE20E030E048E25C
:1016D00052E4C701B6010E94E10D61E0181654F40E
:1016E0008DE00E94960160E08CE00E94960160E02F
:1016F00088E0BDCF8CE00E94960160E08DE0F5CFE0
:10170000A981BA818D909D90AD90BC9080922E025F
:1017100090922F02A0923002B0923102E091240206
:10172000F091250280819181A281B3818093320260
:1017300090933302A0933402B093350220E030E05E
:101740004AEF52E4C501B4010E94E10D18160CF4F1
:101750009ECC20E030E04AEF52ECC501B4010E947B
:10176000820C87FFBFCC40922E0250922F026092D3
:10177000300270923102B6CCFB01DC0102C0059050
:101780000D9241505040D8F70895052E97FB1EF456
:1017900000940E94DC0B57FD07D00E94E40B07FC6D
:1017A00003D04EF40C94DC0B509540953095219568
:1017B0003F4F4F4F5F4F089590958095709561957D
:1017C0007F4F8F4F9F4F0895A1E21A2EAA1BBB1B7C
:1017D000FD010DC0AA1FBB1FEE1FFF1FA217B307FD
:1017E000E407F50720F0A21BB30BE40BF50B661F13
:1017F000771F881F991F1A9469F7609570958095D7
:1018000090959B01AC01BD01CF010895A29FB0014D
:10181000B39FC001A39F700D811D1124911DB29F24
:10182000700D811D1124911D08955058BB27AA27C2
:101830000E942D0C0C94A70D0E94990D38F00E9467
:10184000A00D20F039F49F3F19F426F40C94960D66
:101850000EF4E095E7FB0C94900DE92F0E94B80D73
:1018600058F3BA17620773078407950720F079F4D5
:10187000A6F50C94DA0D0EF4E0950B2EBA2FA02DE0
:101880000B01B90190010C01CA01A0011124FF272D
:10189000591B99F0593F50F4503E68F11A16F04028
:1018A000A22F232F342F4427585FF3CF4695379527
:1018B0002795A795F0405395C9F77EF41F16BA0BEC
:1018C000620B730B840BBAF09150A1F0FF0FBB1F9A
:1018D000661F771F881FC2F70EC0BA0F621F731FE3
:1018E000841F48F4879577956795B795F7959E3F40
:1018F00008F0B0CF9395880F08F09927EE0F9795D1
:10190000879508950E946C0D08F481E008950E9467
:101910009B0C0C94A70D0E94A00D58F00E94990DED
:1019200040F029F45F3F29F00C94900D51110C9474
:10193000DB0D0C94960D0E94B80D68F39923B1F35A
:10194000552391F3951B550BBB27AA2762177307E5
:10195000840738F09F5F5F4F220F331F441FAA1F79
:10196000A9F335D00E2E3AF0E0E832D09150504035
:10197000E695001CCAF72BD0FE2F29D0660F771FE3
:10198000881FBB1F261737074807AB07B0E809F0C9
:10199000BB0B802DBF01FF2793585F4F3AF09E3F4E
:1019A000510578F00C94900D0C94DB0D5F3FE4F33F
:1019B000983ED4F3869577956795B795F7959F5F91
:1019C000C9F7880F911D9695879597F90895E1E0DD
:1019D000660F771F881FBB1F621773078407BA073C
:1019E00020F0621B730B840BBA0BEE1F88F7E09597
:1019F00008950E94000D6894B1110C94DB0D0895B8
:101A00000E94C00D88F09F5798F0B92F9927B751C1
:101A1000B0F0E1F0660F771F881F991F1AF0BA9592
:101A2000C9F714C0B13091F00E94DA0DB1E0089509
:101A30000C94DA0D672F782F8827B85F39F0B93FFB
:101A4000CCF3869577956795B395D9F73EF4909545
:101A50008095709561957F4F8F4F9F4F0895E894C3
:101A600009C097FB3EF490958095709561957F4FE6
:101A70008F4F9F4F9923A9F0F92F96E9BB27939594
:101A8000F695879577956795B795F111F8CFFAF4A4
:101A9000BB0F11F460FF1BC06F5F7F4F8F4F9F4FD5
:101AA00016C0882311F096E911C0772321F09EE833
:101AB000872F762F05C0662371F096E8862F70E099
:101AC00060E02AF09A95660F771F881FDAF7880F73
:101AD0009695879597F90895990F0008550FAA0BC9
:101AE000E0E8FEEF16161706E807F907C0F0121631
:101AF0001306E407F50798F0621B730B840B950B34
:101B000039F40A2661F0232B242B252B21F4089588
:101B10000A2609F4A140A6958FEF811D811D089525
:101B200097F99F6780E870E060E008959FEF80EC90
:101B3000089500240A941616170618060906089533
:101B400000240A9412161306140605060895092E99
:101B50000394000C11F4882352F0BB0F40F4BF2B08
:101B600011F460FF04C06F5F7F4F8F4F9F4F089548
:101B700057FD9058440F551F59F05F3F71F047953E
:101B8000880F97FB991F61F09F3F79F08795089523
:101B9000121613061406551FF2CF4695F1DF08C042
:101BA000161617061806991FF1CF8695710561055F
:101BB00008940895E894BB2766277727CB0197F907
:101BC00008950E946C0D08F48FEF08950E94F90D9E
:101BD0000C94A70D0E94990D38F00E94A00D20F0E2
:101BE000952311F00C94900D0C94960D11240C94E7
:101BF000DB0D0E94B80D70F3959FC1F3950F50E077
:101C0000551F629FF001729FBB27F00DB11D639FAE
:101C1000AA27F00DB11DAA1F649F6627B00DA11D54
:101C2000661F829F2227B00DA11D621F739FB00DFA
:101C3000A11D621F839FA00D611D221F749F33276A
:101C4000A00D611D231F849F600D211D822F762F03
:101C50006A2F11249F5750409AF0F1F088234AF0E0
:101C6000EE0FFF1FBB1F661F771F881F915050404C
:101C7000A9F79E3F510580F00C94900D0C94DB0D5C
:101C80005F3FE4F3983ED4F3869577956795B795D3
:101C9000F795E7959F5FC1F7FE2B880F911D9695ED
:101CA000879597F908950E946C0D880B990B0895FC
:101CB00097FB072E16F4009407D077FD09D00E94F9
:101CC000730E07FC05D03EF4909581959F4F0895C3
:101CD000709561957F4F08950E94060CB7FF089597
:101CE000821B930B0895AA1BBB1B51E107C0AA1FBF
:101CF000BB1FA617B70710F0A61BB70B881F991FAD
:101D00005A95A9F780959095BC01CD010895EE0FE5
:101D1000FF1F0590F491E02D0994F894FFCF000087
:101D20000000EB024B0278023803A90287029B02F3
:101D300000000000F2044B02590358036E616E006C
:101D4000696E66006F76660053503A2000436F6EEE
:101D500074726F6C3A200054656D703A20002C004C
:041D60000D0A000068
:107E0000112484B714BE81FFF0D085E080938100F7
:107E100082E08093C00088E18093C10086E0809377
:107E2000C20080E18093C4008EE0C9D0259A86E02C
:107E300020E33CEF91E0309385002093840096BBD3
:107E4000B09BFECF1D9AA8958150A9F7CC24DD24C4
:107E500088248394B5E0AB2EA1E19A2EF3E0BF2EE7
:107E6000A2D0813461F49FD0082FAFD0023811F036
:107E7000013811F484E001C083E08DD089C08234E0
:107E800011F484E103C0853419F485E0A6D080C0E4
:107E9000853579F488D0E82EFF2485D0082F10E0AE
:107EA000102F00270E291F29000F111F8ED06801E7
:107EB0006FC0863521F484E090D080E0DECF843638
:107EC00009F040C070D06FD0082F6DD080E0C81688
:107ED00080E7D80618F4F601B7BEE895C0E0D1E017
:107EE00062D089930C17E1F7F0E0CF16F0E7DF06D8
:107EF00018F0F601B7BEE89568D007B600FCFDCFD4
:107F0000A601A0E0B1E02C9130E011968C91119780
:107F100090E0982F8827822B932B1296FA010C0160
:107F200087BEE89511244E5F5F4FF1E0A038BF0790
:107F300051F7F601A7BEE89507B600FCFDCF97BE46
:107F4000E89526C08437B1F42ED02DD0F82E2BD052
:107F50003CD0F601EF2C8F010F5F1F4F84911BD097
:107F6000EA94F801C1F70894C11CD11CFA94CF0C13
:107F7000D11C0EC0853739F428D08EE10CD085E9AC
:107F80000AD08FE07ACF813511F488E018D01DD067
:107F900080E101D065CF982F8091C00085FFFCCF94
:107FA0009093C60008958091C00087FFFCCF809118
:107FB000C00084FD01C0A8958091C6000895E0E648
:107FC000F0E098E1908380830895EDDF803219F02E
:107FD00088E0F5DFFFCF84E1DECF1F93182FE3DFCA
:107FE0001150E9F7F2DF1F91089580E0E8DFEE27F6
:047FF000FF270994CA
:027FFE00040479
:00000001FF
